:020000040800F2
:10000000B84D00206D0200080F0C0008D30700084F
:100010000D0C00089D030008AD0E00080000000054
:10002000000000000000000000000000AD0100081A
:100030009F0300080000000009020008210D0008CD
:10004000870200088702000887020008870200086C
:10005000870200088702000887020008870200085C
:10006000870200088702000887020008870200084C
:10007000870200088702000887020008870200083C
:1000800087020008870200088702000800000000BD
:1000900000000000000000000000000087020008CF
:1000A0008702000887020008ED0D0008870200089B
:1000B00087020008870200088702000887020008FC
:1000C00087020008870200088702000887020008EC
:1000D0008702000887020008990E0008000000004F
:1000E000870200088702000887020008000000005D
:1000F000000000000000000000000000870200086F
:10010000000000008702000887020008870200083C
:1001100000000000000000000000000000000000DF
:10012000870200088702000887020008870200088B
:10013000870200080000000000000000000000002E
:10014000000000000000000000000000870200081E
:10015000870200088702000887020008870200085B
:10016000870200088702000800000000000000006D
:10017000000000000000000000000000000000007F
:1001800000000000870200080000000000000000DE
:1001900087020008DFF810D000F0EEF800480047B2
:1001A000390F0008AFF30080B84D00202C4B1968C0
:1001B0000868B0E8F04F80F30988BFF36F8F4FF005
:1001C000000080F3118870470000000008480068B4
:1001D000006880F308884FF0000080F3148862B64E
:1001E00061B6BFF34F8FBFF36F8F00DF00BF00BF5B
:1001F00008ED00E0DFF80C00016841F470010160D7
:10020000704700BF88ED00E0EFF30980BFF36F8F08
:10021000134B1A681EF0100F08BF20ED108A20E95A
:10022000F04F106009B44FF0500080F31188BFF315
:100230004F8FBFF36F8F01F04BFD4FF0000080F345
:10024000118809BC19680868B0E8F04F1EF0100F5B
:1002500008BFB0EC108A80F30988BFF36F8F704736
:1002600014000020EFF30580704700000648804727
:1002700006480047FEE7FEE7FEE7FEE7FEE7FEE78B
:10028000FEE7FEE7FEE7FEE7DD0D0008950100084A
:100290002DE9F05F0546002092469B4688460646BB
:1002A000814640241BE0284641464746224600F04E
:1002B00053F853465A46C01A914110D31146184676
:1002C000224600F03AF82D1A67EB01084F46224605
:1002D0000120002100F031F817EB00094E41201EEB
:1002E000A4F10104DFDC484631462A464346BDE816
:1002F000F09F40EA01039B0703D009E008C9121FE1
:1003000008C0042AFAD203E011F8013B00F8013BCF
:10031000521EF9D27047D2B201E000F8012B491EFB
:10032000FBD270470022F6E710B513460A46044692
:100330001946FFF7F0FF204610BD202A04DB203AC3
:1003400000FA02F1002070479140C2F1200320FA28
:1003500003F3194390407047202A04DB203A21FA26
:1003600002F00021704721FA02F3D040C2F12002CE
:100370009140084319467047064C074D06E0E06877
:1003800040F0010394E8070098471034AC42F6D3DC
:10039000FFF704FF88270008A8270008FEE770473A
:1003A00070B5044600F00EF80546601C02D0044803
:1003B0000078044400F006F8401BA042FAD370BD58
:1003C00004000020014880687047000004000020FD
:1003D000024881680278114481607047040000205F
:1003E0000B4810B5016841F400710160016841F4E7
:1003F00080610160016841F480710160032000F0B8
:1004000099F80F2000F006F800F04AF8002010BD1F
:10041000003C024030B505461C4887B00024016806
:1004200041F480210160006806A900F4802000905A
:1004300001A800F091F800F0AFF81549154AB0FB9B
:10044000F1F11548491E026040F2E732C0E9032489
:10045000C0E90114846100F0B1F8040012D10E4823
:1004600000F0DAF804000DD11A2000F035F8102D54
:1004700007D2002229461A2000F03CF80748056000
:1004800000E0012407B0204630BD0000443802409F
:1004900040420F0000480140980000200800002062
:1004A0000C4882B0016841F480410160006800F4AA
:1004B000804000900748001F016841F080510160B2
:1004C0000068002200F0805000900F21901E02B0C2
:1004D00000F010B844380240002809DB00F01F0289
:1004E000012191404009800000F1E020C0F8001196
:1004F00070470000F0B40E4B1B680C46C3F3022398
:10050000C3F10705042D00D90425191D072901D2BF
:10051000002300E0DB1E012606FA05F1491E2140FA
:1005200099409E40761E16403143F0BC00F0C8BC96
:100530000CED00E0064900F0070208684FF6FF03E3
:10054000184040EA0220034A104308607047000048
:100550000CED00E00000FA050F2202600C4A13685F
:1005600003F003034360136803F0F0038360136830
:1005700003F4E053C36012684FF4E05303EAD2027D
:1005800002610448006800F007000860704700003E
:1005900008380240003C02400448054900680968E8
:1005A000044AC1F34231515CC8407047100000203A
:1005B00008380240742700087047704710B50400DF
:1005C00003D094F83D0010B107E0012010BD0020D9
:1005D00084F83C00204600F01EF8022084F83D001C
:1005E000211D206800F008FC012084F8460084F8F2
:1005F0003E0084F83F0084F8400084F8410084F80D
:10060000420084F8430084F8440084F8450084F8EC
:100610003D00002010BD704790F83D10012901D029
:1006200001207047022180F83D100168CA6842F03D
:100630000102CA6000680E4988420ED0B0F1804FB6
:100640000BD00C49884208D00B49884205D00B4991
:10065000884202D00A49884204D1816801F007012A
:10066000062903D0016841F00101016000207047B4
:10067000000001400004004000080040000C004061
:100680000040014070472DE9F04104460068C6680B
:1006900005694FF00007A90713D5B10711D5F91E59
:1006A000016101202077206880698007204602D000
:1006B000FFF7E8FF04E000F07EF8204600F07CF849
:1006C0002777680716D5700714D521686FF00400E6
:1006D0000861022020772068806910F4407F20465E
:1006E00002D0FFF7CFFF04E000F065F8204600F0ED
:1006F00063F82777280715D5300713D521686FF0E1
:1007000008000861042020772068C069800720461F
:1007100002D0FFF7B7FF04E000F04DF8204600F0EC
:100720004BF82777E80616D5F00614D521686FF048
:1007300010000861082020772068C06910F4407F0D
:10074000204602D0FFF79EFF04E000F034F8204678
:1007500000F032F82777E80708D0F00706D02168C4
:100760006FF001000861204600F028F8280608D53F
:10077000300606D521686FF0800008612046FFF73B
:100780001BFF680608D5700606D521686FF040008B
:100790000861204600F01CF8A8060AD5B00608D566
:1007A00021686FF0200008612046BDE8F041FFF7A6
:1007B00004BFBDE8F081704770470000006803493E
:1007C000884201D1FFF704BE704700000048014095
:1007D0007047FEE7044908B50A6802430A600968E1
:1007E0000140009108BD000030380240F0B50A68B1
:1007F0000F2692FAA2F2B2FA82F303248AE00127CA
:100800009F4015EA07027DD04D68012D01D0022DD1
:100810001BD18D68876892FAA2FCBCFA8CFC4FEA67
:100820004C0C04FA0CFC27EA0C0792FAA2FCBCFA66
:100830008CFC4FEA4C0C05FA0CF52F438760CD6811
:100840004768554397432F4347600F69D0F80CC062
:1008500092FAA2F5B5FA85F54FEA450E04FA0EF5BF
:100860002CEA050C92FAA2F5B5FA85F56D00AF40B9
:100870004CEA070CC0F80CC04D68022D33D192FA37
:10088000A2F5B5FA85F5082D15D2D1F814C0056A80
:1008900092FAA2F7B7FA87F7BF0006FA07F7BD4347
:1008A00092FAA2F7B7FA87F7BF000CFA07FC45EAFD
:1008B0000C05056217E0D1F814E0476A150A95FAAD
:1008C000A5FCBCFA8CFC4FEA8C0C06FA0CFC95FAE1
:1008D000A5F5B5FA85F5AD0027EA0C070EFA05FE79
:1008E00047EA0E0747624D68076892FAA2FCBCFA15
:1008F0008CFC4FEA4C0C04FA0CFE27EA0E0792FA25
:10090000A2F200E005E0B2FA82F2520095402F43D5
:1009100007605B1C0A681546DA407FF470AF002060
:10092000F0BD10B5044600F09DF9206000F070F9AC
:10093000606000F07BF9A060606800F085F9E0601D
:1009400010BD000001490860704700001000002041
:100950007FB50446C0680D460126C0F3403078BB21
:10096000E9686868AA690843296911430843E1688E
:1009700049F20C6291430843E060A868216921F4C0
:100980004051014321616869616921F4407101436B
:1009900061616846FFF7C5FF0B48844207D00B48EA
:1009A000844201D1029903E00948844208D10399A5
:1009B00031B12B6823B100262046AA6900F00AF85D
:1009C00004B0304670BD00000010014000440040FB
:1009D000001401402DE9F04106461920A1FB000159
:1009E0001F46002364243225B2F5004F27D0BB0FE9
:1009F000BA00FFF74DFC0146B0FBF4F06FF01802AF
:100A0000504301EB800005EB0010B0FBF4F000F068
:100A1000F002B1FBF4F002EB0012B1FBF4F06FF066
:100A20001803584301EB800005EB0010B0FBF4F015
:100A300000F00F00104480B2B060BDE8F081FA19F8
:100A40005B41FFF725FC0146B0FBF4F00201B1FB6E
:100A5000F4F06FF01803584301EB800005EBC00081
:100A6000B0FBF4F000F0F80002EB4002B1FBF4F050
:100A7000584301EB800005EBC000B0FBF4F000F040
:100A80000700D7E710B5044A0021044800F09EFA99
:100A90000349086010BD000040270008E10C000871
:100AA0000000002070B586B018216846FFF73AFCB8
:100AB0000420FFF78FFE0120FFF78CFE14484FF44F
:100AC00000518161134E4FF44072B2610124002540
:100AD0008DE832006946CDE90345FFF787FE200225
:100AE000CDE9000402AA022082E8310069463046BE
:100AF000FFF77CFE6002CDE9000402AA032082E831
:100B0000310069463046FFF771FE06B070BD000047
:100B1000000802400000024030B58FB01C2168463A
:100B2000FFF700FC182107A8FFF7FCFB324801681B
:100B300041F400310160006800F400300D902E484F
:100B40001038016841F00101016000680C2500F0D7
:100B500001000D900220CDE9075003200024CDE9CB
:100B600009040720CDE90B4007A92448FFF73EFE02
:100B700023480068C0F30220C0F10701042900D90E
:100B80000421021D072A01D2002000E0C01E01221C
:100B90008A40521E02F0050181400801194981F87E
:100BA0000004184940202239C1F800014FF4E13017
:100BB000CDE900040294CDE9034505940694124C56
:100BC00069462046FFF7C4FE54F8100F20F4904009
:100BD00001C4206820F02A0044F80809206840F485
:100BE0000050206054E8000F40F0200044E800016D
:100BF0000029F7D10FB030BD40380240000002405C
:100C00000CED00E026E000E000440040FEE7FEE7D7
:100C100004490968044A01F0F0010909515CC8401F
:100C2000704700000838024064270008044909683A
:100C3000044A01F4E05102EB91210978C840704761
:100C4000083802407427000804490968044A01F47E
:100C5000604102EB51310978C840704708380240C2
:100C6000742700080748006810F00C01064807D0F8
:100C7000042904D0082903D1082000F009B803484A
:100C800070470000083802400024F40040787D01DD
:100C900010B5104A04460020116811F480030E4973
:100CA00003D0B3F5800F00D10C49082C11D1106886
:100CB00000F03F00B1FBF0F01168C1F38811484328
:100CC0001168012201F4403102EB11414900B0FBEF
:100CD000F1F010BD043802400024F40040787D019A
:100CE0004FF40076094C37044FF47A7508A000F0F1
:100CF000DFF8A7612846FFF753FBA6612846FFF7F8
:100D00004FFB012000F027F9F0E70000000002404F
:100D100048656C6C6F20576F726C64210A0000008C
:100D200010B54FF0E020006901F054FB012803D01A
:100D3000BDE8104001F078B810BD0000234810B5A0
:100D4000016821F007010160016811F0070FFBD174
:100D50001F48016821F4404141F4004101601D48F1
:100D6000016821F0F80141F080010160016841F063
:100D7000010101600168C1F340010029FAD0154862
:100D80000830016821F0F0010160016821F4E051B0
:100D90000160016821F460410160016821F00301F4
:100DA0000160016811F00C0FFBD10B48FFF7CAFD81
:100DB0000F20FFF72FFB08B172B6FEE705488C3015
:100DC000016821F08071016010BD0000003C02400C
:100DD00000700040003802400024F400024801681E
:100DE00041F470010160704788ED00E00148FFF7B1
:100DF0004ABC000098000020F0B502681F4B204C50
:100E0000204D214E4FF0804C984207D0604505D0D0
:100E1000A04203D0A84201D0B04203D122F0700713
:100E20004A683A43984210D060450ED0A0420CD098
:100E3000A8420AD0B04208D0144CA04205D0144CAD
:100E4000A04202D0134CA04203D122F44074CA68DD
:100E500022434C6922F0800222438C68C4620C68F1
:100E60008462984201D109690163016841F004017B
:100E70000160012141610260F0BD000000000140FD
:100E80000004004000080040000C00400040014009
:100E90000044014000480140034800680248001D2A
:100EA000016801607047000000440040FEE7000058
:100EB000014A024900F023B8210F000894000020E5
:100EC0000907090E002804DB00F1E02080F8001477
:100ED000704700F00F0000F1E02080F8141D70470B
:100EE00002E008C8121F08C1002AFAD170477047F3
:100EF000002001E001C1121F002AFBD170472DE93B
:100F0000F04116460F460446002503E03946B04737
:100F1000641C6D1C20780028F8D12846BDE8F081BB
:100F200004490A68C2F3C012002AFAD0C2B24A6069
:100F30007047000000440040FFF752FAFFF7FEFE42
:100F4000FFF7B0FDFFF7E8FD00F012F8FFF79AFD9C
:100F500000F020F8FEE710B5EFF3058111B16FF056
:100F6000050403E0002408B100F0FEFD204610BD9A
:100F7000EFF3058010B16FF0050070470448016879
:100F800011B14FF0FF307047012101600020704720
:100F90006400002010B5EFF3058010B16FF005007C
:100FA00010BD08480168012902D04FF0FF3010BD84
:100FB000054A002182F8141D0221016000F03CFE68
:100FC000002010BD640000200BE000E02DE9FF418F
:100FD0004FEA01034FF00005EFF30581039549BB8C
:100FE00040B38027182100244AB3166806B134465E
:100FF00096691EB13146761E382E02D21679F60752
:1010000003D0002004B0BDE8F081566906B1B708EE
:10101000D2F808C0BCF1000F0DD0D5685C2D18D3F4
:1010200012693AB136B18DE806103A46214601F010
:10103000A6F903900DE0D6685EB912694AB903AA11
:10104000CDE90012BAB2214601F06CF9012800D0B6
:1010500003950398D6E700002DE9F041154C0F46A3
:101060000546E6682168002081F85A002068001DC6
:1010700000F046FC681C07D137B12168BDE8F0419B
:101080000D48091D00F08CBC20683544B542456010
:10109000216805D2A06BBDE8F041091D00F068BCD5
:1010A000606B091D00F064FCA06A854200D2A56255
:1010B000BDE8F08114000020D00500202DE9F041AA
:1010C000054600F079FC2D4CA068401CA06020680B
:1010D0002B4F10B1606930B32BE02560A068012868
:1010E00027D1002606EB860007EB800000F032FCDB
:1010F000761C382EF6D3234800F02CFC21481430FF
:1011000000F028FC1F48283000F024FC1D483C302B
:1011100000F020FC1B48503000F01CFC19486063B4
:101120001430A06305E02068E96AC06A884200D8EC
:101130002560606A401C60626864E86A21698842D0
:1011400000D9206100EB800007EB8000291D00F032
:1011500027FC00F051FC606900280CD02068E96A87
:10116000C06A884207D208494FF080500860BFF338
:101170004F8FBFF36F8FBDE8F08100001400002097
:10118000200100208005002004ED00E038B500F0CB
:1011900013FC104C2068C8B90F4800F0DBFB0E4868
:1011A000143000F0D7FB0C48E060143020610A4B8B
:1011B0000020F03B009003F1500210210A2000F0C3
:1011C00049FE206010B105A100F098FCBDE8384050
:1011D00000F012BC50000020D4060020546D725163
:1011E0000000000030B4026C0B46002A0BD0C1682E
:1011F0001144C1608468A14201D30168C16030BC60
:101200001846FFF776B830BC70472DE9F041856B82
:10121000174604460026026C82B1C7B1E068FFF7AA
:1012200068F8E168206C091AE1602268914202D2F4
:10123000A168081AE060022F16D017E02068A8B94C
:10124000A06801F03FF906460020A0600EE060684B
:10125000FFF74FF8216C606808446060A16888421D
:1012600004D32068606001E005B16D1E6D1CA563AC
:101270003046BDE8F08110B5044690F8590058B1E9
:1012800001280CD002280FD0502080F31188BFF322
:101290004F8FBFF36F8FFEE7206B00F0C1FB20463E
:1012A000BDE8104000F0BCBB10BD000010484FF47A
:1012B0007051420706D0C01D0D4920F00700411AA9
:1012C000C1F570510B4A00230144C2E900030839FB
:1012D000183A21F0070111604B600B600B1AC0E94E
:1012E000001393604FF0004053605061704700005E
:1012F000B40D002080000020144E154CA6F29C472F
:101300004FF08058DFF84C9012E000BF00F054FB23
:10131000F068C568281D00F0F3FAA068401EA060C0
:101320006068401E606000F067FB2846FFF7A3FF7F
:1013300060680028EAD138680128F9D9C9F8008026
:10134000BFF34F8FBFF36F8FF2E70000BC050020A3
:101350001400002004ED00E070B51D46049C51B15E
:10136000C4F80020C4E90F010121204600F0A6FDC9
:1013700084F84C5070BD2460F4E700002DE9F05F64
:101380008846DDE90B941546834691009A460A9EED
:10139000A522206BFEF7BFFF6FF00301206B01EB6E
:1013A0008501084420F00707780707D0502080F314
:1013B0001188BFF34F8FBFF36F8FFEE70025B8F1A1
:1013C000000F0FD05FF00000221818F8001082F80C
:1013D000341018F8001011B1401C1028F4D384F810
:1013E000435001E084F83450382E00D33726E662AB
:1013F000C4E91365201D00F0B8FA04F1180000F0EC
:10140000B4FA2461C6F138006462A061656584F8AD
:10141000585084F85A5052465946384600F05AFA05
:101420002060B9F1000F01D0C9F80040BDE8F09F7D
:1014300030B5114900E011460A688242FBD34B687F
:101440005C18844203D140681844486008464368E9
:101450001C18944209D1084C183C2468A24209D0B7
:1014600052681A4442600A6812680260814200D0E1
:10147000086030BD0460F9E78000002070B50024EA
:1014800041600B4D0061914206D8D11A82699142A8
:1014900006D2011D286907E09A4203D2994201D37E
:1014A000012403E0011DE86800F062FA204670BDE7
:1014B0005000002010B5044600F07EFAA06B28B161
:1014C0005FF0000400F098FA204610BD0124F9E70F
:1014D00030B589B03C4D6EE00498002806DADDE9AD
:1014E0000601059A90470498002864DB069C606911
:1014F00010B1201D00F004FA03A800F0D7F802464E
:1015000004980A2857D2DFE800F00505052D334A74
:1015100005052D3394F8280040F0010084F82800D8
:101520000599A069059B01442046FFF7A7FF68B312
:10153000216A2046884794F8280040073BD50020C0
:1015400000900598A169002342181946204601F031
:10155000C3F8D8B9502080F31188BFF34F8FBFF381
:101560006F8FFEE714F8280F20F00100207022E0B2
:1015700094F8280040F0010084F828000598A06144
:1015800028B1811813462046FFF778FF13E050205A
:1015900080F31188BFF34F8FBFF36F8FFEE794F88E
:1015A0002800810703D4204600F03AFA03E020F037
:1015B000010084F82800002204A9286800F0D2FD68
:1015C000002889D109B030BD500000202DE9FC4130
:1015D0000F46054600F074FB01A800F067F80446CA
:1015E000019818B100F0E6FFBDE8FC81254EAFB1CF
:1015F00030690068D0B30027291B3A46306800F0F4
:1016000091FA00F0D7FF0028EED11F494FF080502B
:101610000860BFF34F8FBFF36F8FE5E7A542EBD8AC
:1016200000F0C8FFF0682746C068C468201D00F0BD
:1016300067F994F82800410719D5A0692B4641198C
:101640003A462046FFF71AFFA8B10020034601469C
:1016500000902A46204601F03FF860B9502080F300
:101660001188BFF34F8FBFF36F8FFEE707E020F0C5
:10167000010084F82800216A20468847B4E7012742
:10168000BAE700005000002004ED00E00648416B7E
:10169000096829B1416BC968C968496881627047A6
:1016A0004FF0FF31FAE700001400002070B5054646
:1016B00000F09EFE064E0446B068844203D200F05D
:1016C00009F8012000E0002028602046B46070BDC9
:1016D00050000020F8B5194D20E0C068C4680668C5
:1016E000201D00F00DF9216A2046884794F8280053
:1016F000400713D5A0693044B04206D92461606028
:10170000211DE86800F034F908E000200346014696
:1017100000903246204600F0DFFF38B1E8680168EB
:101720000029DAD12969C5E90310F8BD502080F3FA
:101730001188BFF34F8FBFF36F8FFEE7500000207B
:1017400008484068401C4FF0500080F3118804D0D6
:10175000BFF34F8FBFF36F8FFEE7BFF34F8FBFF322
:101760006F8FFEE788000020074CE068016841B1F8
:10177000C0680021D0F80000FFF728FFFFF7A8FE9F
:10178000F3E701210020F7E7500000202DE9F041A8
:10179000044600F011F994F9455004F1240609E0DB
:1017A000606A48B1304600F0CDFE08B100F00AFA98
:1017B0006D1E6DB2002DF3DC4FF0FF3684F84560EE
:1017C00000F01AF900F0F8F894F9445004F1100709
:1017D00009E0206948B1384600F0B4FE08B100F0D5
:1017E000F1F96D1E6DB2002DF3DC84F84460BDE8A4
:1017F000F04100F001B900002DE9F0410546002755
:1018000000F05EFA324E306808B9FFF74FFD70699C
:1018100005424ED1C5B3083568070ED005F0070064
:10182000C0F108000544680707D0502080F31188F4
:10183000BFF34F8FBFF36F8FFEE72DB37068854204
:1018400037D82348183001460C6801E020460C4682
:101850006168A94202D221680029F7D131688C421F
:1018600027D007682168016060680837411B10298C
:101870000FD96019420708D0502080F31188BFF3B8
:101880004F8FBFF36F8FFEE713E041606560FFF796
:10189000CFFD61687068401A7060B268904200D2F3
:1018A000B060706901430020C4E90001F068401C89
:1018B000F06000F07FFE780707D0502080F3118899
:1018C000BFF34F8FBFF36F8FFEE73846BDE8F0815F
:1018D0006800002010B5031F4FF080741C601B1FB0
:1018E00021F001011960191F044B0B6014390A60C3
:1018F000091F6FF0020244380A6010BD411700084A
:10190000D0E9013201699A60D0E901235A604A683E
:10191000824201D182684A60002202610868401E4A
:101920000860086870470000034B036003F15C0027
:101930000860802010607047FC060020044B0360A4
:1019400003F15C0008604FF4807010607047000085
:101950005809002000F108014FF0FF32C0E90112E0
:10196000C160016100210160704700210161704781
:1019700030B50B685A1C02D000F1080202E002697F
:1019800004E02246546825689D42FAD953684B60AA
:1019900099608A60516008610168491C016030BD2E
:1019A00042684A6093688B609368596091600861EF
:1019B0000168491C01607047502080F31188BFF313
:1019C0004F8FBFF36F8F0A494868401C4860012859
:1019D0000CD10848006810F0FF0F07D0502080F3AA
:1019E0001188BFF34F8FBFF36F8FFEE77047000082
:1019F0008800002004ED00E00849486828B1401E36
:101A0000486001D180F311887047502080F311881D
:101A1000BFF34F8FBFF36F8FFEE7000088000020F9
:101A200070B500282AD0164DA0F1080460686969D5
:101A3000084207D1502080F31188BFF34F8FBFF3C6
:101A40006F8FFEE722683AB1502080F31188BFF310
:101A50004F8FBFF36F8FFEE78843606000F030F96F
:101A600060686968084468602046FFF7E1FC2869FF
:101A7000401C2861BDE8704000F09CBD70BD0000B6
:101A8000680000204FF0E0200021016181610549DC
:101A90004FF47A720968B1FBF2F1491E41610721E6
:101AA000016170471000002010B5FEF7DBFB114903
:101AB00010280ED300F1E02090F8F0030A7890424D
:101AC00007D2502080F31188BFF34F8FBFF36F8F81
:101AD000FEE709480068896800F4E060884207D999
:101AE000502080F31188BFF34F8FBFF36F8FFEE755
:101AF00010BD0000880000200CED00E010B5084B80
:101B0000002200BF53F832401CB1521C082AF9D3FE
:101B100010BD43F8321003EBC201486010BD000055
:101B2000E000002070B515460E460446FFF744FF5E
:101B300094F944100020491C01D184F8440094F920
:101B40004510491C01D184F84500FFF755FFA06BF3
:101B500028B92A46314604F1240000F051F8204605
:101B6000BDE87040FFF712BE10B5020014D00F4858
:101B7000006B38B1502080F31188BFF34F8FBFF353
:101B80006F8FFEE700F09CF800211046FFF764FA23
:101B900000F010FD002807D105494FF08050086083
:101BA000BFF34F8FBFF36F8F10BD000014000020F4
:101BB00004ED00E002490A6A0260C96841607047AA
:101BC0001400002001490120C86170471400002062
:101BD00010B50C4650B1094909681831FFF7C8FE25
:101BE0002046BDE810400121FFF736BA502080F3AF
:101BF0001188BFF34F8FBFF36F8FFEE714000020F3
:101C000070B514460D4668B10A4909681831FFF7E6
:101C1000C7FE0CB14FF0FF3521462846BDE87040A5
:101C2000FFF71ABA502080F31188BFF34F8FBFF32C
:101C30006F8FFEE71400002030B587B000240394B6
:101C400005AA04A903A80494FFF76EFEDDE90301C9
:101C50000094CDE90110002315A11748059A00F062
:101C60008EFB164D0028E8621FD000F005FD01280C
:101C700009D0401C19D1502080F31188BFF34F8F39
:101C8000BFF36F8FFEE7502080F31188BFF34F8FB3
:101C9000BFF36F8F4FF0FF30A86201206861EC60E6
:101CA00007B0BDE8304000F045B807B030BD0000D7
:101CB00049444C4500000000F912000814000020BF
:101CC0000248016B491C01637047000014000020AA
:101CD000164810B5016B11B10121C16110BD002181
:101CE000C1610169124A01E0B9B1491E01EB8103EA
:101CF00052F82330002BF7D001EB810302EB830273
:101D000002F1080453685B685360A34201D15B6829
:101D10005360DA680260016110BD502080F31188C1
:101D2000BFF34F8FBFF36F8FFEE70000140000205A
:101D3000200100201CB537480168374A914207D17D
:101D4000502080F31188BFF34F8FBFF36F8FFEE7F2
:101D500000683149491E884207D1502080F311881C
:101D6000BFF34F8FBFF36F8FFEE72C4908780190C8
:101D7000FF20087008788DF800009DF800009DF89D
:101D8000002000F0F000904207D0502080F311882E
:101D9000BFF34F8FBFF36F8FFEE79DF80000204C1D
:101DA00000F0500020700720A06005E09DF80020A2
:101DB00052008DF80020401E9DF800201206F5D438
:101DC000A060032807D0502080F31188BFF34F8F05
:101DD000BFF36F8FFEE74FF44070A060019808706A
:101DE0000C482030016841F470010160016841F045
:101DF00070410160FFF746FE00206060FEF7FAF9CF
:101E00000848016841F040410160FEF7DFF9002019
:101E10001CBD000000ED00E071C20F4100E400E0D5
:101E20008800002034EF00E010B5502080F31188C6
:101E3000BFF34F8FBFF36F8F00F0E0FA18B1044982
:101E40004FF080500860002080F3118810BD000022
:101E500004ED00E038B5049D18B153B1CAB181B1A9
:101E600020E0502080F31188BFF34F8FBFF36F8FB6
:101E7000FEE7502080F31188BFF34F8FBFF36F8FC1
:101E8000FEE7502080F31188BFF34F8FBFF36F8FB1
:101E9000FEE739B1502080F31188BFF34F8FBFF3B5
:101EA0006F8FFEE750241C46012384F846302B46F2
:101EB0000094FFF751FA204638BD000070B50D467A
:101EC000040025D0FFF778FDD4E90F20216802FB3C
:101ED0000011A1600021A163216861600A46D4E974
:101EE0000F01401E00FB0121E16021464FF0FF3051
:101EF00001F8440F487004F110008DB1FFF72AFD7E
:101F000004F12400FFF726FDFFF776FD012070BDE8
:101F1000502080F31188BFF34F8FBFF36F8FFEE720
:101F200021690029F0D000F00DFB0028ECD0044915
:101F30004FF080500860BFF34F8FBFF36F8FE3E720
:101F400004ED00E02DE9FF4782B01D468A464FF0C0
:101F50000008040003D0BAF1000F08D011E05020AF
:101F600080F31188BFF34F8FBFF36F8FFEE7206CB4
:101F700038B1502080F31188BFF34F8FBFF36F8FBC
:101F8000FEE7022D0AD1E06B012807D0502080F334
:101F90001188BFF34F8FBFF36F8FFEE700F01AFA7F
:101FA0003F4F4FF000094FF0805648B9049838B1C0
:101FB000502080F31188BFF34F8FBFF36F8FFEE780
:101FC000FFF7FAFCA06BE16B884207D3022D05D026
:101FD0000498D0B1B8F1000F1AD01EE02A4651463D
:101FE0002046FFF712F9616A19B104F1240000F0EC
:101FF000A9FA20B13E60BFF34F8FBFF36F8FFFF799
:10200000FBFC012006B0BDE8F087FFF7F5FC22E0FD
:102010006846FFF7CFFD4FF00108FFF7EDFCFFF733
:102020004FFEFFF7C9FC94F94400401C01D184F82D
:10203000449094F94500401C01D184F84590FFF785
:10204000DBFC04A9684600F029F930B12046FFF70F
:102050009DFB00F0AFFA0020D4E7FFF7ADFCA06BCA
:10206000E16B884213D1FFF7C7FC04F1100004991B
:10207000FFF7AEFD2046FFF789FB00F09BFA002832
:102080009ED13E60BFF34F8FBFF36F8F98E7FFF78E
:10209000B3FC2046FFF77AFB00F08CFA90E70000D3
:1020A00004ED00E02DE9F0471F4690468946040004
:1020B00003D0B9F1000F08D011E0502080F311884F
:1020C000BFF34F8FBFF36F8FFEE7206C38B1502006
:1020D00080F31188BFF34F8FBFF36F8FFEE7022F9E
:1020E0000AD1E06B012807D0502080F31188BFF39C
:1020F0004F8FBFF36F8FFEE7FFF7D6FC5020EFF353
:10210000118680F31188BFF34F8FBFF36F8FA06BE1
:10211000E16B884206D3022F04D0002086F3118899
:10212000BDE8F08794F94550A06B3A4649462046F1
:10213000FFF76BF8681C04D06D1C84F84550012033
:10214000ECE7606A0028FAD004F1240000F0FAF904
:102150000028F4D0B8F1000FF1D00121C8F8001028
:10216000EDE700002DE9F747002683B08A4604001A
:1021700003D0BAF1000F08D011E0502080F311888D
:10218000BFF34F8FBFF36F8FFEE7206C38B1502045
:1021900080F31188BFF34F8FBFF36F8FFEE700F01E
:1021A00019F9DFF8F4804FF000094FF0805748B973
:1021B000059838B1502080F31188BFF34F8FBFF3DB
:1021C0006F8FFEE7FFF7F8FBA56BC5B151462046C0
:1021D000FFF708F86D1EA563206950B104F11000E7
:1021E00000F0B0F928B1C8F80070BFF34F8FBFF30B
:1021F0006F8FFFF701FC012006B0BDE8F08705985E
:1022000008B11EB106E0FFF7F7FB27E06846FFF7CD
:10221000D1FC0126FFF7F0FBFFF752FDFFF7CCFBE7
:1022200094F94400401C01D184F8449094F945008D
:10223000401C01D184F84590FFF7DEFB05A96846F4
:1022400000F02CF8002820460AD0FFF79FFA00F093
:10225000B1F92046FFF72EF90028B3D00020CBE7D4
:10226000FFF728F990B104F124000599FFF7B0FCBD
:102270002046FFF78BFA00F09DF90028A2D1C8F89C
:102280000070BFF34F8FBFF36F8F9BE72046FFF7C0
:102290007DFA00F08FF995E704ED00E02DE9F041BB
:1022A0000C4605000FD0B4B1FFF786FB1C4BDA6873
:1022B0006E681868911B002790F85A0098B118684A
:1022C00080F85A701AE0502080F31188BFF34F8FC6
:1022D000BFF36F8FFEE7502080F31188BFF34F8F5D
:1022E000BFF36F8FFEE72068B0F1FF3F08D0D5F84D
:1022F00000C01B6A9C4509D0964207D8012400E023
:102300000024FFF779FB2046BDE8F081884205D91B
:10231000401A20602846FFF74DFCF1E72760EDE703
:10232000140000202DE9FF5F8346DDE90E87994602
:1023300016468A469000FFF75FFA05001CD05C2025
:10234000FFF75AFA040014D00020256384F85900DE
:10235000CDE90240CDE900874B463246514658460A
:10236000FFF70CF82046FEF7A9FE012004B0BDE8F7
:10237000F09F2846FFF754FB4FF0FF30F6E7F0B52B
:1023800085B0DDE90B640A9DA6B1DCB15C2700973E
:102390002663022684F85960002604AFCDE9024680
:1023A000CDE90057FEF7EAFF2046FEF787FE0498C6
:1023B00005B0F0BD502080F31188BFF34F8FBFF3FD
:1023C0006F8FFEE7502080F31188BFF34F8FBFF36C
:1023D0006F8FFEE70548416919B1006B18B1002005
:1023E0007047012070470220704700001400002051
:1023F0000148C06870470000140000202DE9F0413A
:102400002E4C0027206B28B1A069401CA0613846E3
:10241000BDE8F081E668761CE66013D1606B006869
:1024200038B1502080F31188BFF34F8FBFF36F8F07
:10243000FEE7606BA16B6163A063206A401C2062B1
:10244000FFF724F9A06ADFF87880864209D3606B31
:102450000068A0B1606BC068C5686868864211D228
:10246000A0622068C06A00EB800158F821000128B2
:1024700000D90127E0690028C9D00127C7E74FF03C
:10248000FF30EDE7281DFFF73BFAA86A18B105F108
:102490001800FFF735FAE86A2169884200D92061FF
:1024A00000EB800108EB8100291DFFF779FAE86A4B
:1024B0002168C96A8842CAD30127C8E714000020EE
:1024C0002001002070B504004FF0000133D01B4DF7
:1024D0002868844207D0502080F31188BFF34F8FC3
:1024E000BFF36F8FFEE7206D38B1401E2065E36CAF
:1024F000E26A9A421FD040B11DE0502080F311885B
:10250000BFF34F8FBFF36F8FFEE7201DFFF7F8F982
:10251000E06CE062C0F13800A061E06A296988429D
:1025200000D92861064900EB800001EB8000211DE5
:10253000FFF736FA0121084670BD000014000020A4
:102540002001002070B5C068C46854B104F11800BF
:102550000646FFF7D5F9144D286B50B131461348A4
:1025600015E0502080F31188BFF34F8FBFF36F8FBA
:10257000FEE7201DFFF7C4F9E06A2969884200D907
:1025800028610B4900EB800001EB8000211DFFF763
:1025900007FAE06A2968C96A884202D90120E8611D
:1025A00070BD002070BD000014000020A8050020B0
:1025B000200100202DE9F0472C4D00242746286BF0
:1025C00038B1FFF7F9F9286B401E2863286B40B13A
:1025D00046E0502080F31188BFF34F8FBFF36F8F19
:1025E000FEE7A968224E0120D1B3A6F59169804685
:1025F0003068E0B1F068C46804F11800FFF780F9B2
:10260000201DFFF77DF9E06A2969884200D9286119
:1026100000EB800109EB8100211DFFF7C1F9E06AA1
:102620002968C96A8842E3D3C5F81C80E0E70CB189
:10263000FFF72CF8AC694CB14FEA0806FFF7DEFE55
:1026400000B1EE61641EF9D10020A861E86938B1DB
:102650000849012738070860BFF34F8FBFF36F8F1A
:10266000FFF7CAF93846BDE8F087000014000020E3
:10267000A805002004ED00E010B586B0FEF786FD49
:10268000114C2068B8B100200390049005AA04A959
:1026900003A8FFF753F9DDE9032102208DE80700C5
:1026A00000230AA10B48059AFFF769FE606010B18C
:1026B00006B0012010BD502080F31188BFF34F8F6A
:1026C000BFF36F8FFEE7000050000020546D7220B2
:1026D00053766300691700082DE9FF411E46134633
:1026E00002000A9D4FF0000016D0144C2768002FFE
:1026F0000FD0CDE900130292062917DAFFF76AFE20
:1027000002284FF000030FD0002269462068FFF72F
:1027100019FC04B0BDE8F081502080F31188BFF3AC
:102720004F8FBFF36F8FFEE72A46EEE70023324656
:1027300069463846FFF7B6FCEBE700005000002082
:102740007C270008000000000000000000000000DE
:10275000000000000002000018000000000000005F
:10276000000000000000000000000000010203045F
:1027700006070809000000000102030464656661A1
:10278000756C745461736B00A8270008000000206A
:1027900098000000E00E0008402800089800002083
:1027A000204D0000F00E00080000000001000000B5
:1027B00010000000000000000024F40000000000F1
:1027C0000000000000000000000000000000000009
:1027D00000000000000000000000000000000000F9
:1027E00000000000000000000000000000000000E9
:1027F00000000000000000000000000000000000D9
:1028000000000000000000000000000000000000C8
:1028100000000000000000000000000000000000B8
:1028200000000000000000000000000000000000A8
:1028300000000000AAAAAAAA0000000000000000F0
:040000050800019559
:00000001FF
